{
    "contractName": "Transactions",
    "abi": [
        {
            "anonymous": false,
            "inputs": [
                {
                    "indexed": false,
                    "internalType": "address",
                    "name": "from",
                    "type": "address"
                },
                {
                    "indexed": false,
                    "internalType": "address",
                    "name": "receiver",
                    "type": "address"
                },
                {
                    "indexed": false,
                    "internalType": "uint256",
                    "name": "amount",
                    "type": "uint256"
                },
                {
                    "indexed": false,
                    "internalType": "string",
                    "name": "message",
                    "type": "string"
                },
                {
                    "indexed": false,
                    "internalType": "uint256",
                    "name": "timestamp",
                    "type": "uint256"
                },
                {
                    "indexed": false,
                    "internalType": "string",
                    "name": "keyword",
                    "type": "string"
                }
            ],
            "name": "Transfer",
            "type": "event"
        },
        {
            "inputs": [],
            "name": "addToBlockchain",
            "outputs": [],
            "stateMutability": "nonpayable",
            "type": "function"
        },
        {
            "inputs": [],
            "name": "getAllTransactions",
            "outputs": [
                {
                    "components": [
                        {
                            "internalType": "address",
                            "name": "from",
                            "type": "address"
                        },
                        {
                            "internalType": "address",
                            "name": "receiver",
                            "type": "address"
                        },
                        {
                            "internalType": "uint256",
                            "name": "amount",
                            "type": "uint256"
                        },
                        {
                            "internalType": "string",
                            "name": "message",
                            "type": "string"
                        },
                        {
                            "internalType": "uint256",
                            "name": "timestamp",
                            "type": "uint256"
                        },
                        {
                            "internalType": "string",
                            "name": "keyword",
                            "type": "string"
                        }
                    ],
                    "internalType": "struct Transactions.transferStruct[]",
                    "name": "",
                    "type": "tuple[]"
                }
            ],
            "stateMutability": "view",
            "type": "function"
        },
        {
            "inputs": [],
            "name": "getTransactionsCount",
            "outputs": [
                {
                    "internalType": "uint256",
                    "name": "",
                    "type": "uint256"
                }
            ],
            "stateMutability": "view",
            "type": "function"
        }
    ],
    "bytecode": "608060405234801561001057600080fd5b506101b3806100206000396000f3fe608060405234801561001057600080fd5b50600436106100415760003560e01c806327506f531461004657806341d44af71461005e578063578cb8f914610060575b600080fd5b606060405161005591906100bc565b60405180910390f35b005b60405160008152602001610055565b6000815180845260005b8181101561009557602081850181015186830182015201610079565b818111156100a7576000602083870101525b50601f01601f19169290920160200192915050565b60006020808301818452808551808352604092508286019150828160051b87010184880160005b8381101561016f57888303603f19018552815180516001600160a01b039081168552888201511688850152868101518785015260608082015160c082870181905291906101328388018261006f565b92505050608080830151818701525060a0808301519250858203818701525061015b818361006f565b9689019694505050908601906001016100e3565b50909897505050505050505056fea26469706673582212202c636b1c5e2ecfd7837a1ea4126d291389b3bd6448ada6734bf0aa13e46267ed64736f6c63430008090033",
    "sourcePath": "/Users/thadeusodenyo/nodejs/web3/smart_contract/contracts/Transactions.sol",
    "compiler": {
        "name": "solc",
        "version": "0.8.9+commit.e5eed63a"
    },
    "functionHashes": {
        "addToBlockchain()": "41d44af7",
        "getAllTransactions()": "27506f53",
        "getTransactionsCount()": "578cb8f9"
    },
    "gasEstimates": {
        "creation": {
            "codeDepositCost": "87000",
            "executionCost": "135",
            "totalCost": "87135"
        },
        "external": {
            "addToBlockchain()": "120",
            "getAllTransactions()": "infinite",
            "getTransactionsCount()": "199"
        }
    }
}